{
  "abi": [
    {
      "inputs": [
        {
          "internalType": "address",
          "name": "_guardian",
          "type": "address"
        },
        {
          "internalType": "address",
          "name": "entryPoint_",
          "type": "address"
        }
      ],
      "stateMutability": "nonpayable",
      "type": "constructor"
    },
    {
      "inputs": [],
      "name": "AccountLocked",
      "type": "error"
    },
    {
      "inputs": [],
      "name": "AlreadyApproved",
      "type": "error"
    },
    {
      "inputs": [],
      "name": "ExceedsMaxLockTime",
      "type": "error"
    },
    {
      "inputs": [],
      "name": "ExceedsSponsorshipsLength",
      "type": "error"
    },
    {
      "inputs": [],
      "name": "FailToTransferFee",
      "type": "error"
    },
    {
      "inputs": [],
      "name": "InvalidBlockNumbers",
      "type": "error"
    },
    {
      "inputs": [],
      "name": "InvalidInput",
      "type": "error"
    },
    {
      "inputs": [],
      "name": "NotActive",
      "type": "error"
    },
    {
      "inputs": [],
      "name": "NotApproved",
      "type": "error"
    },
    {
      "inputs": [],
      "name": "NotAuthorized",
      "type": "error"
    },
    {
      "inputs": [],
      "name": "NotSponsorable",
      "type": "error"
    },
    {
      "inputs": [],
      "name": "OwnershipCycle",
      "type": "error"
    },
    {
      "inputs": [],
      "name": "SponsorshipFeeTooLow",
      "type": "error"
    },
    {
      "inputs": [],
      "name": "UntrustedImplementation",
      "type": "error"
    },
    {
      "anonymous": false,
      "inputs": [
        {
          "indexed": true,
          "internalType": "uint256",
          "name": "sponsorshipId",
          "type": "uint256"
        },
        {
          "indexed": false,
          "internalType": "uint256",
          "name": "startBlock",
          "type": "uint256"
        },
        {
          "indexed": false,
          "internalType": "uint256",
          "name": "endBlock",
          "type": "uint256"
        },
        {
          "indexed": false,
          "internalType": "address",
          "name": "transformerAddress",
          "type": "address"
        }
      ],
      "name": "AddSponsorship",
      "type": "event"
    },
    {
      "anonymous": false,
      "inputs": [
        {
          "indexed": false,
          "internalType": "address",
          "name": "previousAdmin",
          "type": "address"
        },
        {
          "indexed": false,
          "internalType": "address",
          "name": "newAdmin",
          "type": "address"
        }
      ],
      "name": "AdminChanged",
      "type": "event"
    },
    {
      "anonymous": false,
      "inputs": [
        {
          "indexed": true,
          "internalType": "uint256",
          "name": "sponsorshipId",
          "type": "uint256"
        }
      ],
      "name": "ApproveSponsorship",
      "type": "event"
    },
    {
      "anonymous": false,
      "inputs": [
        {
          "indexed": true,
          "internalType": "address",
          "name": "beacon",
          "type": "address"
        }
      ],
      "name": "BeaconUpgraded",
      "type": "event"
    },
    {
      "anonymous": false,
      "inputs": [
        {
          "indexed": true,
          "internalType": "uint256",
          "name": "sponsorshipId",
          "type": "uint256"
        }
      ],
      "name": "DeactivateSponsorship",
      "type": "event"
    },
    {
      "anonymous": false,
      "inputs": [
        {
          "indexed": true,
          "internalType": "uint256",
          "name": "sponsorshipId",
          "type": "uint256"
        }
      ],
      "name": "DisapproveSponsorship",
      "type": "event"
    },
    {
      "anonymous": false,
      "inputs": [
        {
          "indexed": false,
          "internalType": "uint256",
          "name": "lockedUntil",
          "type": "uint256"
        }
      ],
      "name": "LockUpdated",
      "type": "event"
    },
    {
      "anonymous": false,
      "inputs": [
        {
          "indexed": false,
          "internalType": "address",
          "name": "owner",
          "type": "address"
        },
        {
          "indexed": false,
          "internalType": "bytes4",
          "name": "selector",
          "type": "bytes4"
        },
        {
          "indexed": false,
          "internalType": "address",
          "name": "implementation",
          "type": "address"
        }
      ],
      "name": "OverrideUpdated",
      "type": "event"
    },
    {
      "anonymous": false,
      "inputs": [
        {
          "indexed": false,
          "internalType": "address",
          "name": "owner",
          "type": "address"
        },
        {
          "indexed": false,
          "internalType": "address",
          "name": "caller",
          "type": "address"
        },
        {
          "indexed": false,
          "internalType": "bool",
          "name": "hasPermission",
          "type": "bool"
        }
      ],
      "name": "PermissionUpdated",
      "type": "event"
    },
    {
      "anonymous": false,
      "inputs": [
        {
          "indexed": true,
          "internalType": "address",
          "name": "target",
          "type": "address"
        },
        {
          "indexed": true,
          "internalType": "uint256",
          "name": "value",
          "type": "uint256"
        },
        {
          "indexed": false,
          "internalType": "bytes",
          "name": "data",
          "type": "bytes"
        }
      ],
      "name": "TransactionExecuted",
      "type": "event"
    },
    {
      "anonymous": false,
      "inputs": [
        {
          "indexed": true,
          "internalType": "address",
          "name": "implementation",
          "type": "address"
        }
      ],
      "name": "Upgraded",
      "type": "event"
    },
    {
      "stateMutability": "payable",
      "type": "fallback"
    },
    {
      "inputs": [
        {
          "internalType": "uint256",
          "name": "startBlock",
          "type": "uint256"
        },
        {
          "internalType": "uint256",
          "name": "endBlock",
          "type": "uint256"
        },
        {
          "internalType": "address",
          "name": "transformerAddress",
          "type": "address"
        }
      ],
      "name": "addSponsorship",
      "outputs": [
        {
          "internalType": "uint256",
          "name": "sponsorshipId",
          "type": "uint256"
        }
      ],
      "stateMutability": "payable",
      "type": "function"
    },
    {
      "inputs": [
        {
          "internalType": "uint256",
          "name": "sponsorshipId",
          "type": "uint256"
        }
      ],
      "name": "approveSponsorship",
      "outputs": [],
      "stateMutability": "nonpayable",
      "type": "function"
    },
    {
      "inputs": [
        {
          "internalType": "uint256",
          "name": "sponsorshipId",
          "type": "uint256"
        }
      ],
      "name": "deactivateSponsorship",
      "outputs": [],
      "stateMutability": "nonpayable",
      "type": "function"
    },
    {
      "inputs": [
        {
          "internalType": "uint256",
          "name": "sponsorshipId",
          "type": "uint256"
        }
      ],
      "name": "disapproveSponsorship",
      "outputs": [],
      "stateMutability": "payable",
      "type": "function"
    },
    {
      "inputs": [],
      "name": "entryPoint",
      "outputs": [
        {
          "internalType": "contract IEntryPoint",
          "name": "",
          "type": "address"
        }
      ],
      "stateMutability": "view",
      "type": "function"
    },
    {
      "inputs": [
        {
          "internalType": "address",
          "name": "to",
          "type": "address"
        },
        {
          "internalType": "uint256",
          "name": "value",
          "type": "uint256"
        },
        {
          "internalType": "bytes",
          "name": "data",
          "type": "bytes"
        }
      ],
      "name": "executeCall",
      "outputs": [
        {
          "internalType": "bytes",
          "name": "",
          "type": "bytes"
        }
      ],
      "stateMutability": "payable",
      "type": "function"
    },
    {
      "inputs": [],
      "name": "getNonce",
      "outputs": [
        {
          "internalType": "uint256",
          "name": "",
          "type": "uint256"
        }
      ],
      "stateMutability": "view",
      "type": "function"
    },
    {
      "inputs": [],
      "name": "getSponsorships",
      "outputs": [
        {
          "components": [
            {
              "internalType": "address",
              "name": "transformerAddress",
              "type": "address"
            },
            {
              "internalType": "uint256",
              "name": "startBlock",
              "type": "uint256"
            },
            {
              "internalType": "uint256",
              "name": "endBlock",
              "type": "uint256"
            },
            {
              "internalType": "bool",
              "name": "isApproved",
              "type": "bool"
            },
            {
              "internalType": "bool",
              "name": "isActive",
              "type": "bool"
            },
            {
              "internalType": "uint256",
              "name": "fee",
              "type": "uint256"
            },
            {
              "internalType": "address",
              "name": "sponsor",
              "type": "address"
            }
          ],
          "internalType": "struct AccountSponsorable.Sponsorship[]",
          "name": "",
          "type": "tuple[]"
        }
      ],
      "stateMutability": "view",
      "type": "function"
    },
    {
      "inputs": [],
      "name": "guardian",
      "outputs": [
        {
          "internalType": "address",
          "name": "",
          "type": "address"
        }
      ],
      "stateMutability": "view",
      "type": "function"
    },
    {
      "inputs": [
        {
          "internalType": "address",
          "name": "caller",
          "type": "address"
        }
      ],
      "name": "isAuthorized",
      "outputs": [
        {
          "internalType": "bool",
          "name": "",
          "type": "bool"
        }
      ],
      "stateMutability": "view",
      "type": "function"
    },
    {
      "inputs": [],
      "name": "isLocked",
      "outputs": [
        {
          "internalType": "bool",
          "name": "",
          "type": "bool"
        }
      ],
      "stateMutability": "view",
      "type": "function"
    },
    {
      "inputs": [],
      "name": "isSponsorable",
      "outputs": [
        {
          "internalType": "bool",
          "name": "",
          "type": "bool"
        }
      ],
      "stateMutability": "view",
      "type": "function"
    },
    {
      "inputs": [
        {
          "internalType": "bytes32",
          "name": "hash",
          "type": "bytes32"
        },
        {
          "internalType": "bytes",
          "name": "signature",
          "type": "bytes"
        }
      ],
      "name": "isValidSignature",
      "outputs": [
        {
          "internalType": "bytes4",
          "name": "magicValue",
          "type": "bytes4"
        }
      ],
      "stateMutability": "view",
      "type": "function"
    },
    {
      "inputs": [
        {
          "internalType": "uint256",
          "name": "_lockedUntil",
          "type": "uint256"
        }
      ],
      "name": "lock",
      "outputs": [],
      "stateMutability": "nonpayable",
      "type": "function"
    },
    {
      "inputs": [],
      "name": "lockedUntil",
      "outputs": [
        {
          "internalType": "uint256",
          "name": "",
          "type": "uint256"
        }
      ],
      "stateMutability": "view",
      "type": "function"
    },
    {
      "inputs": [],
      "name": "nonce",
      "outputs": [
        {
          "internalType": "uint256",
          "name": "",
          "type": "uint256"
        }
      ],
      "stateMutability": "view",
      "type": "function"
    },
    {
      "inputs": [
        {
          "internalType": "address",
          "name": "",
          "type": "address"
        },
        {
          "internalType": "address",
          "name": "",
          "type": "address"
        },
        {
          "internalType": "uint256[]",
          "name": "",
          "type": "uint256[]"
        },
        {
          "internalType": "uint256[]",
          "name": "",
          "type": "uint256[]"
        },
        {
          "internalType": "bytes",
          "name": "",
          "type": "bytes"
        }
      ],
      "name": "onERC1155BatchReceived",
      "outputs": [
        {
          "internalType": "bytes4",
          "name": "",
          "type": "bytes4"
        }
      ],
      "stateMutability": "view",
      "type": "function"
    },
    {
      "inputs": [
        {
          "internalType": "address",
          "name": "",
          "type": "address"
        },
        {
          "internalType": "address",
          "name": "",
          "type": "address"
        },
        {
          "internalType": "uint256",
          "name": "",
          "type": "uint256"
        },
        {
          "internalType": "uint256",
          "name": "",
          "type": "uint256"
        },
        {
          "internalType": "bytes",
          "name": "",
          "type": "bytes"
        }
      ],
      "name": "onERC1155Received",
      "outputs": [
        {
          "internalType": "bytes4",
          "name": "",
          "type": "bytes4"
        }
      ],
      "stateMutability": "view",
      "type": "function"
    },
    {
      "inputs": [
        {
          "internalType": "address",
          "name": "",
          "type": "address"
        },
        {
          "internalType": "address",
          "name": "",
          "type": "address"
        },
        {
          "internalType": "uint256",
          "name": "receivedTokenId",
          "type": "uint256"
        },
        {
          "internalType": "bytes",
          "name": "",
          "type": "bytes"
        }
      ],
      "name": "onERC721Received",
      "outputs": [
        {
          "internalType": "bytes4",
          "name": "",
          "type": "bytes4"
        }
      ],
      "stateMutability": "view",
      "type": "function"
    },
    {
      "inputs": [
        {
          "internalType": "address",
          "name": "",
          "type": "address"
        },
        {
          "internalType": "bytes4",
          "name": "",
          "type": "bytes4"
        }
      ],
      "name": "overrides",
      "outputs": [
        {
          "internalType": "address",
          "name": "",
          "type": "address"
        }
      ],
      "stateMutability": "view",
      "type": "function"
    },
    {
      "inputs": [],
      "name": "owner",
      "outputs": [
        {
          "internalType": "address",
          "name": "",
          "type": "address"
        }
      ],
      "stateMutability": "view",
      "type": "function"
    },
    {
      "inputs": [
        {
          "internalType": "address",
          "name": "",
          "type": "address"
        },
        {
          "internalType": "address",
          "name": "",
          "type": "address"
        }
      ],
      "name": "permissions",
      "outputs": [
        {
          "internalType": "bool",
          "name": "",
          "type": "bool"
        }
      ],
      "stateMutability": "view",
      "type": "function"
    },
    {
      "inputs": [],
      "name": "proxiableUUID",
      "outputs": [
        {
          "internalType": "bytes32",
          "name": "",
          "type": "bytes32"
        }
      ],
      "stateMutability": "view",
      "type": "function"
    },
    {
      "inputs": [
        {
          "internalType": "bool",
          "name": "_isSponsorable",
          "type": "bool"
        }
      ],
      "name": "setIsSponsorable",
      "outputs": [],
      "stateMutability": "nonpayable",
      "type": "function"
    },
    {
      "inputs": [
        {
          "internalType": "bytes4[]",
          "name": "selectors",
          "type": "bytes4[]"
        },
        {
          "internalType": "address[]",
          "name": "implementations",
          "type": "address[]"
        }
      ],
      "name": "setOverrides",
      "outputs": [],
      "stateMutability": "nonpayable",
      "type": "function"
    },
    {
      "inputs": [
        {
          "internalType": "address[]",
          "name": "callers",
          "type": "address[]"
        },
        {
          "internalType": "bool[]",
          "name": "_permissions",
          "type": "bool[]"
        }
      ],
      "name": "setPermissions",
      "outputs": [],
      "stateMutability": "nonpayable",
      "type": "function"
    },
    {
      "inputs": [
        {
          "internalType": "uint256",
          "name": "",
          "type": "uint256"
        }
      ],
      "name": "sponsorships",
      "outputs": [
        {
          "internalType": "address",
          "name": "transformerAddress",
          "type": "address"
        },
        {
          "internalType": "uint256",
          "name": "startBlock",
          "type": "uint256"
        },
        {
          "internalType": "uint256",
          "name": "endBlock",
          "type": "uint256"
        },
        {
          "internalType": "bool",
          "name": "isApproved",
          "type": "bool"
        },
        {
          "internalType": "bool",
          "name": "isActive",
          "type": "bool"
        },
        {
          "internalType": "uint256",
          "name": "fee",
          "type": "uint256"
        },
        {
          "internalType": "address",
          "name": "sponsor",
          "type": "address"
        }
      ],
      "stateMutability": "view",
      "type": "function"
    },
    {
      "inputs": [
        {
          "internalType": "bytes4",
          "name": "interfaceId",
          "type": "bytes4"
        }
      ],
      "name": "supportsInterface",
      "outputs": [
        {
          "internalType": "bool",
          "name": "",
          "type": "bool"
        }
      ],
      "stateMutability": "view",
      "type": "function"
    },
    {
      "inputs": [],
      "name": "token",
      "outputs": [
        {
          "internalType": "uint256",
          "name": "chainId",
          "type": "uint256"
        },
        {
          "internalType": "address",
          "name": "tokenContract",
          "type": "address"
        },
        {
          "internalType": "uint256",
          "name": "tokenId",
          "type": "uint256"
        }
      ],
      "stateMutability": "view",
      "type": "function"
    },
    {
      "inputs": [],
      "name": "tokenURI",
      "outputs": [
        {
          "internalType": "string",
          "name": "modifiedTokenURI",
          "type": "string"
        }
      ],
      "stateMutability": "view",
      "type": "function"
    },
    {
      "inputs": [
        {
          "internalType": "address",
          "name": "newImplementation",
          "type": "address"
        }
      ],
      "name": "upgradeTo",
      "outputs": [],
      "stateMutability": "nonpayable",
      "type": "function"
    },
    {
      "inputs": [
        {
          "internalType": "address",
          "name": "newImplementation",
          "type": "address"
        },
        {
          "internalType": "bytes",
          "name": "data",
          "type": "bytes"
        }
      ],
      "name": "upgradeToAndCall",
      "outputs": [],
      "stateMutability": "payable",
      "type": "function"
    },
    {
      "inputs": [
        {
          "components": [
            {
              "internalType": "address",
              "name": "sender",
              "type": "address"
            },
            {
              "internalType": "uint256",
              "name": "nonce",
              "type": "uint256"
            },
            {
              "internalType": "bytes",
              "name": "initCode",
              "type": "bytes"
            },
            {
              "internalType": "bytes",
              "name": "callData",
              "type": "bytes"
            },
            {
              "internalType": "uint256",
              "name": "callGasLimit",
              "type": "uint256"
            },
            {
              "internalType": "uint256",
              "name": "verificationGasLimit",
              "type": "uint256"
            },
            {
              "internalType": "uint256",
              "name": "preVerificationGas",
              "type": "uint256"
            },
            {
              "internalType": "uint256",
              "name": "maxFeePerGas",
              "type": "uint256"
            },
            {
              "internalType": "uint256",
              "name": "maxPriorityFeePerGas",
              "type": "uint256"
            },
            {
              "internalType": "bytes",
              "name": "paymasterAndData",
              "type": "bytes"
            },
            {
              "internalType": "bytes",
              "name": "signature",
              "type": "bytes"
            }
          ],
          "internalType": "struct UserOperation",
          "name": "userOp",
          "type": "tuple"
        },
        {
          "internalType": "bytes32",
          "name": "userOpHash",
          "type": "bytes32"
        },
        {
          "internalType": "uint256",
          "name": "missingAccountFunds",
          "type": "uint256"
        }
      ],
      "name": "validateUserOp",
      "outputs": [
        {
          "internalType": "uint256",
          "name": "validationData",
          "type": "uint256"
        }
      ],
      "stateMutability": "nonpayable",
      "type": "function"
    },
    {
      "stateMutability": "payable",
      "type": "receive"
    }
  ],
  "bytecode": {
    "object": "0x60e0604052306080523480156200001557600080fd5b50604051620036f0380380620036f08339810160408190526200003891620000af565b81816001600160a01b03821615806200005857506001600160a01b038116155b15620000775760405163b4fa3fb360e01b815260040160405180910390fd5b6001600160a01b0390811660a0521660c05250620000e79050565b80516001600160a01b0381168114620000aa57600080fd5b919050565b60008060408385031215620000c357600080fd5b620000ce8362000092565b9150620000de6020840162000092565b90509250929050565b60805160a05160c05161357e62000172600039600081816103e101528181611f5a015261227301526000818161055c0152818161059201528181611a0401528181611ac001528181611e0c015281816120c2015281816120fd015261247b015260008181610d3101528181610d7a015281816112c0015281816113000152611393015261357e6000f3fe6080604052600436106101fd5760003560e01c80638da5cb5b1161010d578063ce0617ec116100a0578063e3be609c1161006f578063e3be609c14610639578063ee9c60541461064c578063f23a6e611461068d578063fc0c546a146106ad578063fe9fbb80146106e55761020c565b8063ce0617ec146105d4578063d087d288146105ea578063d12c0668146105ff578063dd467064146106195761020c565b8063affed0e0116100dc578063affed0e014610538578063b0d691fe1461054d578063b3080c2414610580578063bc197c81146105b45761020c565b80638da5cb5b146104965780639e5d4c49146104ab578063a4e2d634146104be578063a74194af146104d55761020c565b8063370bf49e116101905780634c9925721161015f5780634c9925721461041b5780634f1ef2861461043b57806352d1902d1461044e5780635491b7d0146104635780637a8f7356146104765761020c565b8063370bf49e1461035f5780633a871cdd1461037f5780633c130d90146103ad578063452a9320146103cf5761020c565b80631f9838b5116101cc5780631f9838b5146102c25780632a27d28b146102fd5780632d1338ee1461031f5780633659cfe61461033f5761020c565b806301ffc9a714610214578063039721b114610249578063150b7a02146102695780631626ba7e146102a25761020c565b3661020c5761020a610705565b005b61020a610705565b34801561022057600080fd5b5061023461022f366004612afd565b61076c565b60405190151581526020015b60405180910390f35b34801561025557600080fd5b5061020a610264366004612b5e565b6107db565b34801561027557600080fd5b50610289610284366004612ca1565b6109ac565b6040516001600160e01b03199091168152602001610240565b3480156102ae57600080fd5b506102896102bd366004612d0c565b610a1f565b3480156102ce57600080fd5b506102346102dd366004612d52565b600260209081526000928352604080842090915290825290205460ff1681565b34801561030957600080fd5b50610312610a61565b6040516102409190612d8b565b34801561032b57600080fd5b5061020a61033a366004612e1d565b610b19565b34801561034b57600080fd5b5061020a61035a366004612e36565b610d27565b34801561036b57600080fd5b5061020a61037a366004612e61565b610e0c565b34801561038b57600080fd5b5061039f61039a366004612e7e565b610e9b565b604051908152602001610240565b3480156103b957600080fd5b506103c2610ec1565b6040516102409190612f21565b3480156103db57600080fd5b506104037f000000000000000000000000000000000000000000000000000000000000000081565b6040516001600160a01b039091168152602001610240565b34801561042757600080fd5b5061020a610436366004612e1d565b6110e8565b61020a610449366004612f34565b6112b6565b34801561045a57600080fd5b5061039f611386565b61039f610471366004612f6d565b611439565b34801561048257600080fd5b5061020a610491366004612b5e565b61166a565b3480156104a257600080fd5b50610403611843565b6103c26104b9366004612fa6565b6118d9565b3480156104ca57600080fd5b506000544210610234565b3480156104e157600080fd5b506104f56104f0366004612e1d565b611985565b604080516001600160a01b039889168152602081019790975286019490945291151560608501521515608084015260a083015290911660c082015260e001610240565b34801561054457600080fd5b5061039f6119e5565b34801561055957600080fd5b507f0000000000000000000000000000000000000000000000000000000000000000610403565b34801561058c57600080fd5b506104037f000000000000000000000000000000000000000000000000000000000000000081565b3480156105c057600080fd5b506102896105cf3660046130ad565b611a7d565b3480156105e057600080fd5b5061039f60005481565b3480156105f657600080fd5b5061039f611a99565b34801561060b57600080fd5b506004546102349060ff1681565b34801561062557600080fd5b5061020a610634366004612e1d565b611aef565b61020a610647366004612e1d565b611bb9565b34801561065857600080fd5b5061040361066736600461315a565b60016020908152600092835260408084209091529082529020546001600160a01b031681565b34801561069957600080fd5b506102896106a8366004613188565b611dd4565b3480156106b957600080fd5b506106c2611df0565b604080519384526001600160a01b03909216602084015290820152606001610240565b3480156106f157600080fd5b50610234610700366004612e36565b611e08565b600060016000610713611843565b6001600160a01b039081168252602080830193909352604091820160009081206001600160e01b03198235168252909352912054169050801561076957600061075f8234600036611fe2565b9050805160208201f35b50565b6000806001600160e01b031983166301ffc9a760e01b148061079e57506001600160e01b03198316630271189760e51b145b806107b957506001600160e01b03198316630801407360e31b145b905080156107ca5750600192915050565b6107d261205e565b50600092915050565b6000544210156107fe57604051636315bfbb60e01b815260040160405180910390fd5b6000610808611843565b9050336001600160a01b038216146108335760405163ea8e4eb560e01b815260040160405180910390fd5b838281146108545760405163b4fa3fb360e01b815260040160405180910390fd5b60005b8181101561099b57848482818110610871576108716131f0565b90506020020160208101906108869190612e61565b6001600160a01b0384166000908152600260205260408120908989858181106108b1576108b16131f0565b90506020020160208101906108c69190612e36565b6001600160a01b031681526020810191909152604001600020805460ff19169115159190911790557f394777a58092892d136a90c4bb7e4350c72ac50fba6a0208128677f36527dcf583888884818110610922576109226131f0565b90506020020160208101906109379190612e36565b878785818110610949576109496131f0565b905060200201602081019061095e9190612e61565b604080516001600160a01b03948516815293909216602084015215159082015260600160405180910390a1806109938161321c565b915050610857565b506109a46120b7565b505050505050565b60006109b661205e565b60008060006109c3612164565b92509250925046831480156109e057506001600160a01b03821633145b80156109eb57508581145b15610a095760405163b79e3f3f60e01b815260040160405180910390fd5b50630a85bd0160e11b925050505b949350505050565b6000610a2961205e565b6000610a3d610a36611843565b85856121b7565b90508015610a555750630b135d3f60e11b9050610a5b565b60009150505b92915050565b60606003805480602002602001604051908101604052809291908181526020016000905b82821015610b105760008481526020908190206040805160e0810182526006860290920180546001600160a01b03908116845260018083015485870152600283015493850193909352600382015460ff808216151560608701526101009091041615156080850152600482015460a08501526005909101541660c08301529083529092019101610a85565b50505050905090565b60045460ff16610b3c576040516337671e9b60e21b815260040160405180910390fd5b6040516301fd3f7760e71b8152336004820152309063fe9fbb8090602401602060405180830381865afa158015610b77573d6000803e3d6000fd5b505050506040513d601f19601f82011682018060405250810190610b9b9190613235565b610bb85760405163ea8e4eb560e01b815260040160405180910390fd5b600354811115610bdb57604051639b7ba57760e01b815260040160405180910390fd5b60038181548110610bee57610bee6131f0565b600091825260209091206003600690920201015460ff1615610c235760405163080fc0bd60e11b815260040160405180910390fd5b600160038281548110610c3857610c386131f0565b906000526020600020906006020160030160006101000a81548160ff0219169083151502179055506000336001600160a01b031660038381548110610c7f57610c7f6131f0565b90600052602060002090600602016004015460405160006040518083038185875af1925050503d8060008114610cd1576040519150601f19603f3d011682016040523d82523d6000602084013e610cd6565b606091505b5050905080610cf85760405163596236b360e01b815260040160405180910390fd5b60405182907f3835e4f16263d57fa8eca9408377d58f75b44058727f7dfc81cad791ddc2d79c90600090a25050565b6001600160a01b037f0000000000000000000000000000000000000000000000000000000000000000163003610d785760405162461bcd60e51b8152600401610d6f90613252565b60405180910390fd5b7f00000000000000000000000000000000000000000000000000000000000000006001600160a01b0316610dc1600080516020613502833981519152546001600160a01b031690565b6001600160a01b031614610de75760405162461bcd60e51b8152600401610d6f9061329e565b610df081612218565b6040805160008082526020820190925261076991839190612300565b6040516301fd3f7760e71b8152336004820152309063fe9fbb8090602401602060405180830381865afa158015610e47573d6000803e3d6000fd5b505050506040513d601f19601f82011682018060405250810190610e6b9190613235565b610e885760405163ea8e4eb560e01b815260040160405180910390fd5b6004805460ff1916911515919091179055565b6000610ea5612470565b610eaf84846124e8565b9050610eba826125c4565b9392505050565b6060600080306001600160a01b031663fc0c546a6040518163ffffffff1660e01b8152600401606060405180830381865afa158015610f04573d6000803e3d6000fd5b505050506040513d601f19601f82011682018060405250810190610f2891906132ea565b60405163c87b56dd60e01b81526004810182905291945092506001600160a01b038416915063c87b56dd90602401600060405180830381865afa158015610f73573d6000803e3d6000fd5b505050506040513d6000823e601f3d908101601f19168201604052610f9b9190810190613323565b60045490935060ff16610fad57505090565b60005b6003548110156110e257600060038281548110610fcf57610fcf6131f0565b60009182526020918290206040805160e081018252600690930290910180546001600160a01b039081168452600182015494840194909452600281015491830191909152600381015460ff808216151560608501526101009091041615156080830152600481015460a08301526005015490911660c082015290506110538161261d565b156110cf578051604051639e420a8f60e01b81526001600160a01b0390911690639e420a8f90611087908890600401612f21565b600060405180830381865afa1580156110a4573d6000803e3d6000fd5b505050506040513d6000823e601f3d908101601f191682016040526110cc9190810190613323565b94505b50806110da8161321c565b915050610fb0565b50505090565b60035481111561110b57604051639b7ba57760e01b815260040160405180910390fd5b336001600160a01b031660038281548110611128576111286131f0565b60009182526020909120600560069092020101546001600160a01b0316146111635760405163ea8e4eb560e01b815260040160405180910390fd5b60038181548110611176576111766131f0565b906000526020600020906006020160030160019054906101000a900460ff166111b257604051634065aaf160e11b815260040160405180910390fd5b6000600382815481106111c7576111c76131f0565b906000526020600020906006020160030160016101000a81548160ff0219169083151502179055506000336001600160a01b03166003838154811061120e5761120e6131f0565b90600052602060002090600602016004015460405160006040518083038185875af1925050503d8060008114611260576040519150601f19603f3d011682016040523d82523d6000602084013e611265565b606091505b50509050806112875760405163596236b360e01b815260040160405180910390fd5b60405182907ffeef0f1812f4e7ebaa4f6bdd1e70048e3444e741344431b240aec85fe178614290600090a25050565b6001600160a01b037f00000000000000000000000000000000000000000000000000000000000000001630036112fe5760405162461bcd60e51b8152600401610d6f90613252565b7f00000000000000000000000000000000000000000000000000000000000000006001600160a01b0316611347600080516020613502833981519152546001600160a01b031690565b6001600160a01b03161461136d5760405162461bcd60e51b8152600401610d6f9061329e565b61137682612218565b61138282826001612300565b5050565b6000306001600160a01b037f000000000000000000000000000000000000000000000000000000000000000016146114265760405162461bcd60e51b815260206004820152603860248201527f555550535570677261646561626c653a206d757374206e6f742062652063616c60448201527f6c6564207468726f7567682064656c656761746563616c6c00000000000000006064820152608401610d6f565b5060008051602061350283398151915290565b60045460009060ff1661145f576040516337671e9b60e21b815260040160405180910390fd5b828410158061146e5750438311155b1561148c57604051637b89d0d760e11b815260040160405180910390fd5b6040805160e0810182526001600160a01b038085168252602082018781529282018681526000606084018181526001608086018181523460a088019081523360c0890190815260038054808601825596819052985160069096027fc2575a0e9e593c00f959f8c92f12db2869c3395a3b0502d05e2516446f71f85b81018054978a166001600160a01b031998891617905599517fc2575a0e9e593c00f959f8c92f12db2869c3395a3b0502d05e2516446f71f85c8b015595517fc2575a0e9e593c00f959f8c92f12db2869c3395a3b0502d05e2516446f71f85d8a015592517fc2575a0e9e593c00f959f8c92f12db2869c3395a3b0502d05e2516446f71f85e89018054925115156101000261ff00199215159290921661ffff199093169290921717905590517fc2575a0e9e593c00f959f8c92f12db2869c3395a3b0502d05e2516446f71f85f87015591517fc2575a0e9e593c00f959f8c92f12db2869c3395a3b0502d05e2516446f71f8609095018054959093169416939093179055546116169190613390565b60408051868152602081018690526001600160a01b03851681830152905191925082917f40b8fbab01d6a9ef32b60c788713491814951b3dbde216e5f2a3b4b260d1f21c9181900360600190a29392505050565b60005442101561168d57604051636315bfbb60e01b815260040160405180910390fd5b6000611697611843565b9050336001600160a01b038216146116c25760405163ea8e4eb560e01b815260040160405180910390fd5b838281146116e35760405163b4fa3fb360e01b815260040160405180910390fd5b60005b8181101561099b57848482818110611700576117006131f0565b90506020020160208101906117159190612e36565b6001600160a01b038416600090815260016020526040812090898985818110611740576117406131f0565b90506020020160208101906117559190612afd565b6001600160e01b0319168152602081019190915260400160002080546001600160a01b0319166001600160a01b03929092169190911790557f2c722487e90aca38ec1b074c3403210bd2bfb769b4da7f12f7bf0b9e37517c18838888848181106117c1576117c16131f0565b90506020020160208101906117d69190612afd565b8787858181106117e8576117e86131f0565b90506020020160208101906117fd9190612e36565b604080516001600160a01b0394851681526001600160e01b031993909316602084015292168183015290519081900360600190a18061183b8161321c565b9150506116e6565b600080600080611851612164565b925092509250468314611868576000935050505090565b6040516331a9108f60e11b8152600481018290526001600160a01b03831690636352211e90602401602060405180830381865afa1580156118ad573d6000803e3d6000fd5b505050506040513d601f19601f820116820180604052508101906118d191906133a3565b935050505090565b60606118e433611e08565b6119015760405163ea8e4eb560e01b815260040160405180910390fd5b60005442101561192457604051636315bfbb60e01b815260040160405180910390fd5b83856001600160a01b03167f47d99ad340f52da66535aff7e10da1ceb85a32bcbd9fa1c42314d194545e14d285856040516119609291906133e9565b60405180910390a36119706120b7565b61197c85858585611fe2565b95945050505050565b6003818154811061199557600080fd5b60009182526020909120600690910201805460018201546002830154600384015460048501546005909501546001600160a01b0394851696509294919360ff808316946101009093041692911687565b604051631aab3f0d60e11b8152306004820152600060248201819052907f00000000000000000000000000000000000000000000000000000000000000006001600160a01b0316906335567e1a906044015b602060405180830381865afa158015611a54573d6000803e3d6000fd5b505050506040513d601f19601f82011682018060405250810190611a7891906133fd565b905090565b6000611a8761205e565b5063bc197c8160e01b95945050505050565b604051631aab3f0d60e11b8152306004820152600060248201819052906001600160a01b037f000000000000000000000000000000000000000000000000000000000000000016906335567e1a90604401611a37565b611af7611843565b6001600160a01b0316336001600160a01b031614611b285760405163ea8e4eb560e01b815260040160405180910390fd5b600054421015611b4b57604051636315bfbb60e01b815260040160405180910390fd5b611b59426301e13380613416565b811115611b79576040516301814f7d60e31b815260040160405180910390fd5b60008190556040518181527fa7b24c66dd3269a292a60b3facdbb8f3e7557d1e19e64d99e0d6ee7250be63ad9060200160405180910390a16107696120b7565b60045460ff16611bdc576040516337671e9b60e21b815260040160405180910390fd5b6040516301fd3f7760e71b8152336004820152309063fe9fbb8090602401602060405180830381865afa158015611c17573d6000803e3d6000fd5b505050506040513d601f19601f82011682018060405250810190611c3b9190613235565b611c585760405163ea8e4eb560e01b815260040160405180910390fd5b600354811115611c7b57604051639b7ba57760e01b815260040160405180910390fd5b60038181548110611c8e57611c8e6131f0565b600091825260209091206003600690920201015460ff16611cc25760405163c19f17a960e01b815260040160405180910390fd5b3460038281548110611cd657611cd66131f0565b9060005260206000209060060201600401541115611d0757604051634191038360e11b815260040160405180910390fd5b600060038281548110611d1c57611d1c6131f0565b60009182526020822060069190910201600301805460ff191692151592909217909155604051309034908381818185875af1925050503d8060008114611d7e576040519150601f19603f3d011682016040523d82523d6000602084013e611d83565b606091505b5050905080611da55760405163596236b360e01b815260040160405180910390fd5b60405182907ffb6dc4d36b638f23213ead959e75a9ef3e8b4e460d55d7ed5d73ba3a9c88fea890600090a25050565b6000611dde61205e565b5063f23a6e6160e01b95945050505050565b6000806000611dfd612164565b925092509250909192565b60007f00000000000000000000000000000000000000000000000000000000000000006001600160a01b0316826001600160a01b031603611e4b57506001919050565b6000806000611e58612164565b9250925092506000826001600160a01b0316636352211e836040518263ffffffff1660e01b8152600401611e8e91815260200190565b602060405180830381865afa158015611eab573d6000803e3d6000fd5b505050506040513d601f19601f82011682018060405250810190611ecf91906133a3565b9050806001600160a01b0316866001600160a01b031603611ef65750600195945050505050565b6001600160a01b038082166000908152600260209081526040808320938a168352929052205460ff1615611f305750600195945050505050565b468414158015611fc557506040516333932be560e11b81526001600160a01b0387811660048301527f0000000000000000000000000000000000000000000000000000000000000000169063672657ca90602401602060405180830381865afa158015611fa1573d6000803e3d6000fd5b505050506040513d601f19601f82011682018060405250810190611fc59190613235565b15611fd65750600195945050505050565b50600095945050505050565b60606000856001600160a01b0316858585604051612001929190613429565b60006040518083038185875af1925050503d806000811461203e576040519150601f19603f3d011682016040523d82523d6000602084013e612043565b606091505b50925090508061205557815160208301fd5b50949350505050565b60006001600061206c611843565b6001600160a01b039081168252602080830193909352604091820160009081206001600160e01b03198235168252909352912054169050801561076957600061075f82600036612652565b336001600160a01b037f0000000000000000000000000000000000000000000000000000000000000000161461216257604051630bd28e3b60e01b8152600060048201527f00000000000000000000000000000000000000000000000000000000000000006001600160a01b031690630bd28e3b90602401600060405180830381600087803b15801561214957600080fd5b505af115801561215d573d6000803e3d6000fd5b505050505b565b60408051606080825260808201909252600091829182918291906020820181803683370190505090506060604d60208301303c808060200190518101906121ab91906132ea565b93509350935050909192565b60008060006121c685856126ca565b909250905060008160048111156121df576121df613439565b1480156121fd5750856001600160a01b0316826001600160a01b0316145b8061220e575061220e86868661270f565b9695505050505050565b612220611843565b6001600160a01b0316336001600160a01b0316146122515760405163ea8e4eb560e01b815260040160405180910390fd5b604051631506fd4d60e01b81526001600160a01b0382811660048301526000917f000000000000000000000000000000000000000000000000000000000000000090911690631506fd4d90602401602060405180830381865afa1580156122bc573d6000803e3d6000fd5b505050506040513d601f19601f820116820180604052508101906122e09190613235565b90508061138257604051635abead2f60e11b815260040160405180910390fd5b7f4910fdfa16fed3260ed0e7147f7cc6da11a60208b5b9406d12a635614ffd91435460ff161561233857612333836127fb565b505050565b826001600160a01b03166352d1902d6040518163ffffffff1660e01b8152600401602060405180830381865afa925050508015612392575060408051601f3d908101601f1916820190925261238f918101906133fd565b60015b6123f55760405162461bcd60e51b815260206004820152602e60248201527f45524331393637557067726164653a206e657720696d706c656d656e7461746960448201526d6f6e206973206e6f74205555505360901b6064820152608401610d6f565b60008051602061350283398151915281146124645760405162461bcd60e51b815260206004820152602960248201527f45524331393637557067726164653a20756e737570706f727465642070726f786044820152681a58589b195555525160ba1b6064820152608401610d6f565b50612333838383612897565b336001600160a01b037f000000000000000000000000000000000000000000000000000000000000000016146121625760405162461bcd60e51b815260206004820152601c60248201527f6163636f756e743a206e6f742066726f6d20456e747279506f696e74000000006044820152606401610d6f565b600080630b135d3f60e11b30631626ba7e612530867f19457468657265756d205369676e6564204d6573736167653a0a3332000000006000908152601c91909152603c902090565b61253e61014089018961344f565b6040518463ffffffff1660e01b815260040161255c93929190613495565b602060405180830381865afa158015612579573d6000803e3d6000fd5b505050506040513d601f19601f8201168201806040525081019061259d91906134af565b6001600160e01b03191614905080156125ba576000915050610a5b565b5060019392505050565b801561076957604051600090339060001990849084818181858888f193505050503d8060008114612611576040519150601f19603f3d011682016040523d82523d6000602084013e612616565b606091505b5050505050565b600081608001518015612631575081606001515b8015612641575043826020015111155b8015610a5b57505060400151431090565b60606000846001600160a01b03168484604051612670929190613429565b600060405180830381855afa9150503d80600081146126ab576040519150601f19603f3d011682016040523d82523d6000602084013e6126b0565b606091505b5092509050806126c257815160208301fd5b509392505050565b60008082516041036127005760208301516040840151606085015160001a6126f4878285856128bc565b94509450505050612708565b506000905060025b9250929050565b6000806000856001600160a01b0316631626ba7e60e01b86866040516024016127399291906134cc565b60408051601f198184030181529181526020820180516001600160e01b03166001600160e01b031990941693909317909252905161277791906134e5565b600060405180830381855afa9150503d80600081146127b2576040519150601f19603f3d011682016040523d82523d6000602084013e6127b7565b606091505b50915091508180156127cb57506020815110155b801561220e57508051630b135d3f60e11b906127f090830160209081019084016133fd565b149695505050505050565b6001600160a01b0381163b6128685760405162461bcd60e51b815260206004820152602d60248201527f455243313936373a206e657720696d706c656d656e746174696f6e206973206e60448201526c1bdd08184818dbdb9d1c9858dd609a1b6064820152608401610d6f565b60008051602061350283398151915280546001600160a01b0319166001600160a01b0392909216919091179055565b6128a083612980565b6000825111806128ad5750805b156123335761215d83836129c0565b6000807f7fffffffffffffffffffffffffffffff5d576e7357a4501ddfe92f46681b20a08311156128f35750600090506003612977565b6040805160008082526020820180845289905260ff881692820192909252606081018690526080810185905260019060a0016020604051602081039080840390855afa158015612947573d6000803e3d6000fd5b5050604051601f1901519150506001600160a01b03811661297057600060019250925050612977565b9150600090505b94509492505050565b612989816127fb565b6040516001600160a01b038216907fbc7cd75a20ee27fd9adebab32041f755214dbc6bffa90cc0225b39da2e5c2d3b90600090a250565b6060610eba8383604051806060016040528060278152602001613522602791396060600080856001600160a01b0316856040516129fd91906134e5565b600060405180830381855af49150503d8060008114612a38576040519150601f19603f3d011682016040523d82523d6000602084013e612a3d565b606091505b509150915061220e8683838760608315612ab8578251600003612ab1576001600160a01b0385163b612ab15760405162461bcd60e51b815260206004820152601d60248201527f416464726573733a2063616c6c20746f206e6f6e2d636f6e74726163740000006044820152606401610d6f565b5081610a17565b610a178383815115612acd5781518083602001fd5b8060405162461bcd60e51b8152600401610d6f9190612f21565b6001600160e01b03198116811461076957600080fd5b600060208284031215612b0f57600080fd5b8135610eba81612ae7565b60008083601f840112612b2c57600080fd5b5081356001600160401b03811115612b4357600080fd5b6020830191508360208260051b850101111561270857600080fd5b60008060008060408587031215612b7457600080fd5b84356001600160401b0380821115612b8b57600080fd5b612b9788838901612b1a565b90965094506020870135915080821115612bb057600080fd5b50612bbd87828801612b1a565b95989497509550505050565b6001600160a01b038116811461076957600080fd5b634e487b7160e01b600052604160045260246000fd5b604051601f8201601f191681016001600160401b0381118282101715612c1c57612c1c612bde565b604052919050565b60006001600160401b03821115612c3d57612c3d612bde565b50601f01601f191660200190565b600082601f830112612c5c57600080fd5b8135612c6f612c6a82612c24565b612bf4565b818152846020838601011115612c8457600080fd5b816020850160208301376000918101602001919091529392505050565b60008060008060808587031215612cb757600080fd5b8435612cc281612bc9565b93506020850135612cd281612bc9565b92506040850135915060608501356001600160401b03811115612cf457600080fd5b612d0087828801612c4b565b91505092959194509250565b60008060408385031215612d1f57600080fd5b8235915060208301356001600160401b03811115612d3c57600080fd5b612d4885828601612c4b565b9150509250929050565b60008060408385031215612d6557600080fd5b8235612d7081612bc9565b91506020830135612d8081612bc9565b809150509250929050565b602080825282518282018190526000919060409081850190868401855b82811015612e1057815180516001600160a01b0390811686528782015188870152868201518787015260608083015115159087015260808083015115159087015260a0808301519087015260c091820151169085015260e09093019290850190600101612da8565b5091979650505050505050565b600060208284031215612e2f57600080fd5b5035919050565b600060208284031215612e4857600080fd5b8135610eba81612bc9565b801515811461076957600080fd5b600060208284031215612e7357600080fd5b8135610eba81612e53565b600080600060608486031215612e9357600080fd5b83356001600160401b03811115612ea957600080fd5b84016101608187031215612ebc57600080fd5b95602085013595506040909401359392505050565b60005b83811015612eec578181015183820152602001612ed4565b50506000910152565b60008151808452612f0d816020860160208601612ed1565b601f01601f19169290920160200192915050565b602081526000610eba6020830184612ef5565b60008060408385031215612f4757600080fd5b8235612f5281612bc9565b915060208301356001600160401b03811115612d3c57600080fd5b600080600060608486031215612f8257600080fd5b83359250602084013591506040840135612f9b81612bc9565b809150509250925092565b60008060008060608587031215612fbc57600080fd5b8435612fc781612bc9565b93506020850135925060408501356001600160401b0380821115612fea57600080fd5b818701915087601f830112612ffe57600080fd5b81358181111561300d57600080fd5b88602082850101111561301f57600080fd5b95989497505060200194505050565b600082601f83011261303f57600080fd5b813560206001600160401b0382111561305a5761305a612bde565b8160051b613069828201612bf4565b928352848101820192828101908785111561308357600080fd5b83870192505b848310156130a257823582529183019190830190613089565b979650505050505050565b600080600080600060a086880312156130c557600080fd5b85356130d081612bc9565b945060208601356130e081612bc9565b935060408601356001600160401b03808211156130fc57600080fd5b61310889838a0161302e565b9450606088013591508082111561311e57600080fd5b61312a89838a0161302e565b9350608088013591508082111561314057600080fd5b5061314d88828901612c4b565b9150509295509295909350565b6000806040838503121561316d57600080fd5b823561317881612bc9565b91506020830135612d8081612ae7565b600080600080600060a086880312156131a057600080fd5b85356131ab81612bc9565b945060208601356131bb81612bc9565b9350604086013592506060860135915060808601356001600160401b038111156131e457600080fd5b61314d88828901612c4b565b634e487b7160e01b600052603260045260246000fd5b634e487b7160e01b600052601160045260246000fd5b60006001820161322e5761322e613206565b5060010190565b60006020828403121561324757600080fd5b8151610eba81612e53565b6020808252602c908201527f46756e6374696f6e206d7573742062652063616c6c6564207468726f7567682060408201526b19195b1959d85d1958d85b1b60a21b606082015260800190565b6020808252602c908201527f46756e6374696f6e206d7573742062652063616c6c6564207468726f7567682060408201526b6163746976652070726f787960a01b606082015260800190565b6000806000606084860312156132ff57600080fd5b83519250602084015161331181612bc9565b80925050604084015190509250925092565b60006020828403121561333557600080fd5b81516001600160401b0381111561334b57600080fd5b8201601f8101841361335c57600080fd5b805161336a612c6a82612c24565b81815285602083850101111561337f57600080fd5b61197c826020830160208601612ed1565b81810381811115610a5b57610a5b613206565b6000602082840312156133b557600080fd5b8151610eba81612bc9565b81835281816020850137506000828201602090810191909152601f909101601f19169091010190565b602081526000610a176020830184866133c0565b60006020828403121561340f57600080fd5b5051919050565b80820180821115610a5b57610a5b613206565b8183823760009101908152919050565b634e487b7160e01b600052602160045260246000fd5b6000808335601e1984360301811261346657600080fd5b8301803591506001600160401b0382111561348057600080fd5b60200191503681900382131561270857600080fd5b83815260406020820152600061197c6040830184866133c0565b6000602082840312156134c157600080fd5b8151610eba81612ae7565b828152604060208201526000610a176040830184612ef5565b600082516134f7818460208701612ed1565b919091019291505056fe360894a13ba1a3210667c828492db98dca3e2076cc3735a920a3ca505d382bbc416464726573733a206c6f772d6c6576656c2064656c65676174652063616c6c206661696c6564a2646970667358221220e61850e6bc6ba5fc76e51382a30adf15fdd23d97735cb3bead17fbfe91e6e9c064736f6c63430008140033",
    "linkReferences": {}
  },
  "methodIdentifiers": {
    "_entryPoint()": "b3080c24",
    "addSponsorship(uint256,uint256,address)": "5491b7d0",
    "approveSponsorship(uint256)": "2d1338ee",
    "deactivateSponsorship(uint256)": "4c992572",
    "disapproveSponsorship(uint256)": "e3be609c",
    "entryPoint()": "b0d691fe",
    "executeCall(address,uint256,bytes)": "9e5d4c49",
    "getNonce()": "d087d288",
    "getSponsorships()": "2a27d28b",
    "guardian()": "452a9320",
    "isAuthorized(address)": "fe9fbb80",
    "isLocked()": "a4e2d634",
    "isSponsorable()": "d12c0668",
    "isValidSignature(bytes32,bytes)": "1626ba7e",
    "lock(uint256)": "dd467064",
    "lockedUntil()": "ce0617ec",
    "nonce()": "affed0e0",
    "onERC1155BatchReceived(address,address,uint256[],uint256[],bytes)": "bc197c81",
    "onERC1155Received(address,address,uint256,uint256,bytes)": "f23a6e61",
    "onERC721Received(address,address,uint256,bytes)": "150b7a02",
    "overrides(address,bytes4)": "ee9c6054",
    "owner()": "8da5cb5b",
    "permissions(address,address)": "1f9838b5",
    "proxiableUUID()": "52d1902d",
    "setIsSponsorable(bool)": "370bf49e",
    "setOverrides(bytes4[],address[])": "7a8f7356",
    "setPermissions(address[],bool[])": "039721b1",
    "sponsorships(uint256)": "a74194af",
    "supportsInterface(bytes4)": "01ffc9a7",
    "token()": "fc0c546a",
    "tokenURI()": "3c130d90",
    "upgradeTo(address)": "3659cfe6",
    "upgradeToAndCall(address,bytes)": "4f1ef286",
    "validateUserOp((address,uint256,bytes,bytes,uint256,uint256,uint256,uint256,uint256,bytes,bytes),bytes32,uint256)": "3a871cdd"
  },
  "id": 70
}